:100000000C9424010C9443010C9441010C94410183
:100010000C9441010C9441010C9441010C94410158
:100020000C9441010C9441010C9441010C94410148
:100030000C9441010C9441010C9441010C94410138
:100040000C9441010C9441010C9441010C94410128
:100050000C9441010C9441010C9441010C94410118
:100060000C9441010C944101000000000000005F6D
:1000700000000007000700147F147F14242A7F2A41
:10008000122313086462364955225000050300000C
:10009000001C2241000041221C0014083E081408E4
:1000A000083E0808005030000008080808080060F2
:1000B00060000020100804023E5149453E00427F86
:1000C000400042615149462141454B311814127F8D
:1000D0001027454545393C4A494930017109050316
:1000E0003649494936064949291E0036360000007E
:1000F0005636000008142241001414141414004150
:100100002214080201510906324979413E7E11113B
:10011000117E7F494949363E414141227F4141227A
:100120001C7F494949417F090909013E4149497AF2
:100130007F0808087F00417F41002040413F017F48
:10014000081422417F404040407F020C027F7F0420
:1001500008107F3E4141413E7F090909063E415159
:10016000215E7F09192946464949493101017F012C
:10017000013F4040403F1F2040201F3F4038403F4C
:100180006314081463070870080761514945430068
:100190007F41410002040810200041417F00040219
:1001A0000102044040404040000102040020545439
:1001B00054787F48444438384444442038444448C0
:1001C0007F3854545418087E0901020C5252523E92
:1001D0007F0804047800447D40002040443D007FB7
:1001E0001028440000417F40007C041804787C08FB
:1001F00004047838444444387C1414140808141453
:10020000187C7C080404084854545420043F44409B
:10021000203C4040207C1C2040201C3C4030403C86
:1002200044281028440C5050503C4464544C440022
:100230000836410000007F00000041360800100829
:10024000081008000000000011241FBECFEFD8E006
:10025000DEBFCDBF11E0A0E0B1E0E0E9F3E102C014
:1002600005900D92A432B107D9F723E0A4E2B1E0E2
:1002700001C01D92A136B207E1F70E948A040C94D6
:10028000C6090C9400001F920F920FB60F92112412
:100290008F934A9903C081E0809324018F910F903E
:1002A0000FBE0F901F9018950F931F93CF93DF935E
:1002B000CDB7DEB72D970FB6F894DEBF0FBECDBF1A
:1002C0000E9422022091090140910A0160910B01D4
:1002D000809126010E943103209105014091060181
:1002E00060910701809108010E94F50320910101AE
:1002F0004091020160910301809104010E94F50385
:10030000809125011F928F938CE091E09F938F93B2
:100310008E010F5F1F4F1F930F930E94DC0661E059
:10032000C8010E9407030E941C030F900F900F90BA
:100330000F900F900F902D960FB6F894DEBF0FBE62
:10034000CDBFDF91CF911F910F910895909104013E
:100350009150909304018091020181508093020199
:10036000992311F081110BC080E5809304018CE486
:1003700080930201809125018F5F8093250108956C
:100380002998662311F02B9A01C02B9827E030E0C2
:1003900090E0AC01022E02C0559547950A94E2F711
:1003A00040FF02C02C9A01C02C982D9A2D98215004
:1003B000310978F7299A089560E00C94C001CF9331
:1003C000DF93219A229A239A249A259A2A9A299A83
:1003D0008FE39CE90197F1F700C000002A989FEF96
:1003E0002AE683E0915020408040E1F700C0000001
:1003F0002A9A299881E20E94DC0183E10E94DC01B3
:1004000086E00E94DC0182EC0E94DC0180E20E9416
:10041000DC0189E00E94DC0180E80E94DC0180E4CC
:100420000E94DC01C8EFD1E061E080E00E94C001E1
:100430002197D1F788E00E94DC018CE0DF91CF9119
:100440000C94DC0180E80E94DC0180E40E94DC0165
:1004500010921F031092200388EF91E0E7E2F1E091
:10046000DF019C011D9221503040E1F70895811178
:1004700002C084E201C080E20C94DC01962F9695C4
:1004800096959695E82FF0E084E5989FE00DF11D94
:100490001124E95DFE4F677081E090E001C0880F94
:1004A0006A95EAF7442319F09081892B03C080955F
:1004B00090818923808308958F929F92AF92BF92FB
:1004C000DF92EF92FF920F931F93CF93DF9300D0B1
:1004D00000D01F92CDB7DEB7F62E282F082E000CC5
:1004E000330B80326CF02052310985E0829FB001DD
:1004F000839F700D112468597F4F45E050E00EC076
:10050000220F331FF901EF5DFC4F008111810115AE
:10051000110559F445E050E068E670E0CE0101961F
:100520000E94D3068E010F5F1F4F85E0F89E500199
:10053000112497E0F99E40011124D12C8D2D90E0DB
:100540008A159B0544F5E12C8E2D90E088159905C0
:1005500004F58D2D6F2D0E940205F801E80FF11DA5
:10056000208130E08E2D0E94020502C0359527952E
:100570008A95E2F76091200380911F036E0D20FFA2
:1005800002C041E001C040E08D0D0E943E02E394B4
:10059000DBCFD394D3CF80911F0391E0980F8F2DA1
:1005A000880F880F8F0D890F843518F480931F03EF
:1005B0000BC010921F03809120038F5F97E0F99E7C
:1005C000800D11248093200380912003803320F03C
:1005D00010921F03109220030F900F900F900F9016
:1005E0000F90DF91CF911F910F91FF90EF90DF90CF
:1005F000BF90AF909F908F90089580323CF4E82F89
:10060000EE0FFF0BEF5DFC4F7183608308951F9326
:10061000CF93DF93162FEC018991882321F0612F6E
:100620000E945C02F9CFDF91CF911F9108958093D2
:100630001F03609320030895CF93DF9380E80E9407
:10064000DC0180E40E94DC01C7E2D1E061E0899135
:100650000E94C00183E0CF31D807C1F7DF91CF916D
:1006600008954F925F926F927F928F929F92AF9276
:10067000BF92CF92DF92EF92FF92CF93DF93CDB7ED
:10068000DEB72E970FB6F894DEBF0FBECDBF8D87B5
:100690006987F22E642F70E0681B7109072E000C29
:1006A000880B990B0E941E064B015C016F2D70E0B8
:1006B0002985621B7109072E000C880B990B0E947B
:1006C0001E066B017C0124013501E89477F8DC01FA
:1006D000CB01BF7789839A83AB83BC839C01AD0137
:1006E000C301B2010E94AA0687FF04C049805A8054
:1006F0006B807C80A3019201C501B4010E947B053F
:1007000069837A838B839C83A3019201C701B6011D
:100710000E947B056D837E838F839887AD856A2FCA
:1007200070E080E090E00E941C066B017C01B985BE
:100730006B2F70E080E090E00E941C064B015C0192
:1007400021E030E03E872D87AD85BE85BD01BB0F22
:10075000880B990B0E941E069B01AC01C301B201DC
:100760000E94AA0687FD2CC0C501B4010E94ED05B8
:1007700069877A878B879C87C701B6010E94ED0540
:10078000DC01CB0141E069850E943E0229813A816A
:100790004B815C81C701B6010E940F056B017C0192
:1007A0002D813E814F815885C501B4010E940F05FE
:1007B0004B015C018D859E8501969E878D87C4CFF8
:1007C0002E960FB6F894DEBF0FBECDBFDF91CF914E
:1007D000FF90EF90DF90CF90BF90AF909F908F9061
:1007E0007F906F905F904F9008950F931F93CF93DA
:1007F000DF93C82F162F042FD22F262F0E943103EC
:100800002D2F402F612F802F0E9431032D2F4C2F31
:100810006D2F802F0E943103212F4C2F6D2F8C2F95
:10082000DF91CF911F910F910C9431037F928F92A2
:100830009F92AF92BF92CF92DF92EF92FF920F936F
:100840001F93CF93DF93D82EC62EC42FD0E0E12C78
:10085000F12C00E010E041E0AC2CA00E6A2DBC2E83
:10086000BD0C8B2D0E943E0241E08C2E8C0C682D1D
:100870009D2C900E892D0E943E0241E0682D7D2C1A
:10088000701A872D0E943E0241E06A2D8D2C8C1A31
:10089000882D0E943E0241E0AC2CA01A6A2D882DC2
:1008A0000E943E0241E08C2C8C1A682D872D0E94FC
:1008B0003E0241E0682D892D0E943E0241E06A2DF2
:1008C0008B2D0E943E021E141F045CF00F5F1F4F11
:1008D000C801880F991F0196E80EF91E1E141F0407
:1008E0003CF42197CE01880F991F0196E81AF90A66
:1008F000C017D1070CF0AFCFDF91CF911F910F91AF
:10090000FF90EF90DF90CF90BF90AF909F908F902F
:100910007F900895CF93DF930E94DF010E9422020F
:1009200084B18F6184B98AB11AB8809168008460FB
:100930008093680080916D00816080936D005A9A69
:1009400082E08093690081E08DBB7894C0E0D0E0C4
:1009500080910001813009F050C0809124018130E4
:1009600019F41092240102C0219779F480910701B3
:100970008E30B8F08150809307018091050181503D
:1009800080930501C1E0D0E00EC0809105018B325B
:1009900040F4909107019F5F909307018F5F8093D0
:1009A0000501C0E0D0E08FE99FE00197F1F700C0BA
:1009B00000000E94A6010E945401909104018091C0
:1009C0000601891728F2909103018091050198177B
:1009D00008F0BECF9091010180910701891708F0BE
:1009E000B7CF0E94220261E087E191E00E940703F5
:1009F0000E941C0310920001ABCF80E090E0DF91D9
:100A0000CF910895991B79E004C0991F961708F0BB
:100A1000961B881F7A95C9F7809508955058BB2773
:100A2000AA270E9426050C9470060E94620638F0E0
:100A30000E94690620F039F49F3F19F426F40C94C3
:100A40005F060EF4E095E7FB0C945906E92F0E942F
:100A5000810658F3BA17620773078407950720F0D9
:100A600079F4A6F50C94A3060EF4E0950B2EBA2F9C
:100A7000A02D0B01B90190010C01CA01A0011124A4
:100A8000FF27591B99F0593F50F4503E68F11A1650
:100A9000F040A22F232F342F4427585FF3CF4695E1
:100AA00037952795A795F0405395C9F77EF41F1603
:100AB000BA0B620B730B840BBAF09150A1F0FF0FCD
:100AC000BB1F661F771F881FC2F70EC0BA0F621FB9
:100AD000731F841F48F4879577956795B795F795A9
:100AE0009E3F08F0B0CF9395880F08F09927EE0F3E
:100AF0009795879508950E948F050C9470060E9423
:100B0000690658F00E94620640F029F45F3F29F020
:100B10000C94590651110C94A4060C945F060E9483
:100B2000810668F39923B1F3552391F3951B550B77
:100B3000BB27AA2762177307840738F09F5F5F4FB0
:100B4000220F331F441FAA1FA9F335D00E2E3AF0EF
:100B5000E0E832D091505040E695001CCAF72BD007
:100B6000FE2F29D0660F771F881FBB1F2617370758
:100B70004807AB07B0E809F0BB0B802DBF01FF278A
:100B800093585F4F3AF09E3F510578F00C94590608
:100B90000C94A4065F3FE4F3983ED4F386957795D2
:100BA0006795B795F7959F5FC9F7880F911D969543
:100BB000879597F90895E1E0660F771F881FBB1F9F
:100BC000621773078407BA0720F0621B730B840B4C
:100BD000BA0BEE1F88F7E09508950E94890688F009
:100BE0009F5798F0B92F9927B751B0F0E1F0660FF1
:100BF000771F881F991F1AF0BA95C9F714C0B13032
:100C000091F00E94A306B1E008950C94A306672F0B
:100C1000782F8827B85F39F0B93FCCF38695779560
:100C20006795B395D9F73EF4909580957095619549
:100C30007F4F8F4F9F4F0895E89409C097FB3EF474
:100C400090958095709561957F4F8F4F9F4F992319
:100C5000A9F0F92F96E9BB279395F6958795779597
:100C60006795B795F111F8CFFAF4BB0F11F460FF57
:100C70001BC06F5F7F4F8F4F9F4F16C0882311F0AF
:100C800096E911C0772321F09EE8872F762F05C0C3
:100C9000662371F096E8862F70E060E02AF09A955E
:100CA000660F771F881FDAF7880F9695879597F953
:100CB000089597F99F6780E870E060E008959FEFDE
:100CC00080EC089500240A941616170618060906E3
:100CD000089500240A9412161306140605060895B2
:100CE000092E0394000C11F4882352F0BB0F40F43A
:100CF000BF2B11F460FF04C06F5F7F4F8F4F9F4F7A
:100D0000089557FD9058440F551F59F05F3F71F0FB
:100D10004795880F97FB991F61F09F3F79F0879562
:100D20000895121613061406551FF2CF4695F1DFEB
:100D300008C0161617061806991FF1CF869571057B
:100D4000610508940895E894BB2766277727CB01AF
:100D500097F908950E94AF0608F48FEF0895990F50
:100D60000008550FAA0BE0E8FEEF16161706E80775
:100D7000F907C0F012161306E407F50798F0621B96
:100D8000730B840B950B39F40A2661F0232B242B6B
:100D9000252B21F408950A2609F4A140A6958FEF8A
:100DA000811D811D0895FB01DC0102C005900D929B
:100DB00041505040D8F70895AEE0B0E0E2EEF6E0E2
:100DC0000C949D090D891E8986E08C831A83098302
:100DD0008FEF9FE79E838D83AE01475E5F4F6F89E4
:100DE000788DCE0101960E94FE06EF81F885E00F16
:100DF000F11F10822E96E4E00C94B909ABE0B0E04C
:100E0000E4E0F7E00C948F096C017B018A01FC019E
:100E100017821682838181FFCCC1CE0101963C01ED
:100E2000F6019381F70193FD859193FF81917F01F5
:100E3000882309F4BAC1853239F493FD859193FF73
:100E400081917F01853229F4B60190E00E94F50876
:100E5000E7CF912C212C312CFFE1F315D8F08B3208
:100E600079F038F4803279F08332A1F4232D2061B7
:100E70001DC08D3261F0803369F4232D216016C0CE
:100E8000832D8260382EE32DE4603E2E2AC0F32DA0
:100E9000F8601DC037FC2DC020ED280F2A3040F02F
:100EA0008E32B9F436FC81C1232D2064322E19C054
:100EB00036FE06C08AE0989E200D1124922E11C0A5
:100EC000EAE02E9E200D1124222EF32DF0623F2EFB
:100ED00008C08C3621F4832D8068382E02C08836F5
:100EE00041F4F70193FD859193FF81917F01811179
:100EF000B3CF982F9F7D9554933028F40C5F1F4FEC
:100F00009FE399830DC0833631F0833771F08335C9
:100F100009F059C021C0F801808189830E5F1F4FFD
:100F200088248394912C530113C02801F2E04F0EC2
:100F3000511CF801A080B18036FE03C0692D70E01D
:100F400002C06FEF7FEFC5010E94EA084C018201E9
:100F5000F32DFF773F2E16C0280122E0420E511CD0
:100F6000F801A080B18036FE03C0692D70E002C098
:100F70006FEF7FEFC5010E94DF084C01F32DF06891
:100F80003F2E820133FC1BC0822D90E0881699060B
:100F9000B0F4B60180E290E00E94F5082A94F4CF04
:100FA000F50137FC859137FE81915F01B60190E034
:100FB0000E94F50821102A9421E0821A91088114D8
:100FC000910471F7E8C0843611F0893641F5F801D3
:100FD00037FE07C060817181828193810C5F1F4F52
:100FE00008C060817181072E000C880B990B0E5F81
:100FF0001F4FF32DFF763F2E97FF09C090958095E8
:10100000709561957F4F8F4F9F4FF0683F2E2AE07C
:1010100030E0A3010E943109882E861845C085372B
:1010200031F4232D2F7EB22E2AE030E025C0932DFF
:10103000997FB92E8F36C1F018F4883579F0B5C094
:10104000803719F0883721F0B0C0E92FE061BE2E5B
:10105000B4FE0DC0FB2DF460BF2E09C034FE0AC0E3
:10106000292F2660B22E06C028E030E005C020E11E
:1010700030E002C020E132E0F801B7FE07C0608135
:101080007181828193810C5F1F4F06C060817181E5
:1010900080E090E00E5F1F4FA3010E943109882E6F
:1010A0008618FB2DFF773F2E36FE0DC0232D2E7F99
:1010B000A22E891458F434FE0BC032FC09C0832DD3
:1010C0008E7EA82E05C0B82CA32C03C0B82C01C05E
:1010D000B92CA4FE0FC0FE01E80DF11D8081803304
:1010E00021F49A2D997EA92E09C0A2FE06C0B394C0
:1010F000B39404C08A2D867809F0B394A3FC11C080
:10110000A0FE06C0B21488F4280C922C9B180EC0C6
:10111000B21460F4B60180E290E00E94F508B39446
:10112000F7CFB21418F42B1802C0982C212CA4FE6F
:1011300010C0B60180E390E00E94F508A2FE17C03F
:10114000A1FC03C088E790E002C088E590E0B6010A
:101150000CC08A2D867859F0A1FE02C08BE201C036
:1011600080E2A7FC8DE2B60190E00E94F5088914A8
:1011700038F4B60180E390E00E94F5089A94F7CF26
:101180008A94F301E80DF11D8081B60190E00E9480
:10119000F5088110F5CF222009F442CEB60180E295
:1011A00090E00E94F5082A94F6CFF6018681978197
:1011B00002C08FEF9FEF2B96E2E10C94AB09FC018C
:1011C0000590615070400110D8F7809590958E0F72
:1011D0009F1F0895FC016150704001900110D8F7E5
:1011E000809590958E0F9F1F08950F931F93CF9317
:1011F000DF93FB01238121FD03C08FEF9FEF2CC004
:1012000022FF16C04681578124813581421753073A
:1012100044F4A081B1819D012F5F3F4F3183208332
:101220008C93268137812F5F3F4F3783268314C0ED
:101230008B01EC01FB010084F185E02D0995892BE0
:10124000E1F6D80116968D919C9117970196179605
:101250009C938E931697CE01DF91CF911F910F91A2
:101260000895FA01AA27283051F1203181F1E8943C
:101270006F936E7F6E5F7F4F8F4F9F4FAF4FB1E089
:101280003ED0B4E03CD0670F781F891F9A1FA11D84
:10129000680F791F8A1F911DA11D6A0F711D811D85
:1012A000911DA11D20D009F468943F912AE0269F4A
:1012B00011243019305D3193DEF6CF010895462FA9
:1012C0004770405D4193B3E00FD0C9F7F6CF462F8A
:1012D0004F70405D4A3318F0495D31FD40524193F3
:1012E00002D0A9F7EACFB4E0A695979587957795B0
:1012F0006795BA95C9F700976105710508959B0137
:10130000AC010A2E06945795479537952795BA95BF
:10131000C9F7620F731F841F951FA01D08952F9298
:101320003F924F925F926F927F928F929F92AF9275
:10133000BF92CF92DF92EF92FF920F931F93CF93C2
:10134000DF93CDB7DEB7CA1BDB0B0FB6F894DEBF59
:101350000FBECDBF09942A88398848885F846E847F
:101360007D848C849B84AA84B984C884DF80EE80C9
:10137000FD800C811B81AA81B981CE0FD11D0FB6D2
:10138000F894DEBF0FBECDBFED010895F894FFCFF6
:10139000012B50214C2B1121072B532B706F696EA1
:1013A00074733A20256400566F636520706572641B
:0413B000657501005E
:00000001FF
