:100000000C9424010C9443010C9441010C94410183
:100010000C9441010C9441010C9441010C94410158
:100020000C9441010C9441010C9441010C94410148
:100030000C9441010C9441010C9441010C94410138
:100040000C9441010C9441010C9441010C94410128
:100050000C9441010C9441010C9441010C94410118
:100060000C9441010C944101000000000000005F6D
:1000700000000007000700147F147F14242A7F2A41
:10008000122313086462364955225000050300000C
:10009000001C2241000041221C0014083E081408E4
:1000A000083E0808005030000008080808080060F2
:1000B00060000020100804023E5149453E00427F86
:1000C000400042615149462141454B311814127F8D
:1000D0001027454545393C4A494930017109050316
:1000E0003649494936064949291E0036360000007E
:1000F0005636000008142241001414141414004150
:100100002214080201510906324979413E7E11113B
:10011000117E7F494949363E414141227F4141227A
:100120001C7F494949417F090909013E4149497AF2
:100130007F0808087F00417F41002040413F017F48
:10014000081422417F404040407F020C027F7F0420
:1001500008107F3E4141413E7F090909063E415159
:10016000215E7F09192946464949493101017F012C
:10017000013F4040403F1F2040201F3F4038403F4C
:100180006314081463070870080761514945430068
:100190007F41410002040810200041417F00040219
:1001A0000102044040404040000102040020545439
:1001B00054787F48444438384444442038444448C0
:1001C0007F3854545418087E0901020C5252523E92
:1001D0007F0804047800447D40002040443D007FB7
:1001E0001028440000417F40007C041804787C08FB
:1001F00004047838444444387C1414140808141453
:10020000187C7C080404084854545420043F44409B
:10021000203C4040207C1C2040201C3C4030403C86
:1002200044281028440C5050503C4464544C440022
:100230000836410000007F00000041360800100829
:10024000081008000000000011241FBECFEFD8E006
:10025000DEBFCDBF11E0A0E0B1E0E2E1F4E102C019
:1002600005900D92A034B107D9F723E0A0E4B1E0E6
:1002700001C01D92A238B207E1F70E94BE040C949F
:10028000070A0C9400001F920F920FB60F921124D0
:100290008F934A9903C081E0809342018F910F9020
:1002A0000FBE0F901F90189560E08DE10E944B03E8
:1002B00061E08BE091E00E943B0361E18AE00E94F3
:1002C0004B0361E080E191E00E943B0362E28AE03F
:1002D0000E944B0361E08CE191E00E943B030C948F
:1002E00050030F931F93CF93DF93CDB7DEB72D97B6
:1002F0000FB6F894DEBF0FBECDBF0E94560220910C
:1003000008014091090160910A01809145010E9414
:1003100065032091040140910501609106018091DF
:1003200007010E9429042091000140910101609180
:100330000201809103010E942904809144011F92CF
:100340008F9387E291E09F938F938E010F5F1F4FF2
:100350001F930F930E941D0761E0C8010E943B0399
:100360000E9450030F900F900F900F900F900F90DE
:100370002D960FB6F894DEBF0FBECDBFDF91CF91A3
:100380001F910F9108959091030191509093030153
:1003900080910101815080930101992311F0811115
:1003A0000BC080E5809303018CE480930101809170
:1003B00044018F5F809344010895CF93DF9300D071
:1003C000CDB7DEB75E9A4D9B06C08FE19EE40197E4
:1003D000F1F700C000008BB18F738BB98D850F9042
:1003E0000F90DF91CF9108952998662311F02B9AF1
:1003F00001C02B9827E030E090E0AC01022E02C053
:10040000559547950A94E2F740FF02C02C9A01C027
:100410002C982D9A2D982150310978F7299A089512
:1004200060E00C94F401CF93DF93219A229A239AEF
:10043000249A259A2A9A299A8FE39CE90197F1F741
:1004400000C000002A989FEF2AE683E091502040E8
:100450008040E1F700C000002A9A299881E20E94BA
:10046000100283E10E94100286E00E94100282ECDA
:100470000E94100280E20E94100289E00E94100295
:1004800080E80E94100280E40E941002C8EFD1E0D0
:1004900061E080E00E94F4012197D1F788E00E949A
:1004A00010028CE0DF91CF910C94100280E80E9442
:1004B000100280E40E94100210923E0310923F034B
:1004C00088EF91E0E6E4F1E0DF019C011D9221500C
:1004D0003040E1F70895811102C084E201C080E25A
:1004E0000C941002962F969596959695E82FF0E02D
:1004F00084E5989FE00DF11D1124EA5BFE4F6770C3
:1005000081E090E001C0880F6A95EAF7442319F072
:100510009081892B03C080959081892380830895E1
:100520008F929F92AF92BF92DF92EF92FF920F93C2
:100530001F93CF93DF9300D000D01F92CDB7DEB7CB
:10054000F62E282F082E000C330B80326CF0205230
:10055000310985E0829FB001839F700D1124685995
:100560007F4F45E050E00EC0220F331FF901EE5BD4
:10057000FC4F008111810115110559F445E050E04F
:1005800068E670E0CE0101960E9414078E010F5FAD
:100590001F4F85E0F89E5001112497E0F99E40011D
:1005A0001124D12C8D2D90E08A159B0544F5E12C6A
:1005B0008E2D90E08815990504F58D2D6F2D0E94E4
:1005C0004305F801E80FF11D208130E08E2D0E94D7
:1005D000430502C0359527958A95E2F760913F0360
:1005E00080913E036E0D20FF02C041E001C040E05B
:1005F0008D0D0E947202E394DBCFD394D3CF809110
:100600003E0391E0980F8F2D880F880F8F0D890F73
:10061000843518F480933E030BC010923E03809102
:100620003F038F5F97E0F99E800D112480933F0375
:1006300080913F03803320F010923E0310923F03DD
:100640000F900F900F900F900F90DF91CF911F910F
:100650000F91FF90EF90DF90BF90AF909F908F90A1
:10066000089580323CF4E82FEE0FFF0BEE5BFC4F59
:100670007183608308951F93CF93DF93162FEC014E
:100680008991882321F0612F0E949002F9CFDF9198
:10069000CF911F91089580933E0360933F03089587
:1006A000CF93DF9380E80E94100280E40E94100242
:1006B000C6E4D1E061E089910E94F40183E0CE3389
:1006C000D807C1F7DF91CF9108954F925F926F9253
:1006D0007F928F929F92AF92BF92CF92DF92EF92D2
:1006E000FF92CF93DF93CDB7DEB72E970FB6F89476
:1006F000DEBF0FBECDBF8D876987F22E642F70E0FD
:10070000681B7109072E000C880B990B0E945F066D
:100710004B015C016F2D70E02985621B7109072E6A
:10072000000C880B990B0E945F066B017C01240171
:100730003501E89477F8DC01CB01BF7789839A8390
:10074000AB83BC839C01AD01C301B2010E94EB06E7
:1007500087FF04C049805A806B807C80A30192018E
:10076000C501B4010E94BC0569837A838B839C8395
:10077000A3019201C701B6010E94BC056D837E836F
:100780008F839887AD856A2F70E080E090E00E94AB
:100790005D066B017C01B9856B2F70E080E090E015
:1007A0000E945D064B015C0121E030E03E872D8711
:1007B000AD85BE85BD01BB0F880B990B0E945F06FE
:1007C0009B01AC01C301B2010E94EB0687FD2CC066
:1007D000C501B4010E942E0669877A878B879C87A2
:1007E000C701B6010E942E06DC01CB0141E06985FC
:1007F0000E94720229813A814B815C81C701B60156
:100800000E9450056B017C012D813E814F815885EE
:10081000C501B4010E9450054B015C018D859E8588
:1008200001969E878D87C4CF2E960FB6F894DEBFB3
:100830000FBECDBFDF91CF91FF90EF90DF90CF90B3
:10084000BF90AF909F908F907F906F905F904F90F0
:1008500008950F931F93CF93DF93C82F162F042F64
:10086000D22F262F0E9465032D2F402F612F802F1E
:100870000E9465032D2F4C2F6D2F802F0E94650342
:10088000212F4C2F6D2F8C2FDF91CF911F910F9126
:100890000C9465037F928F929F92AF92BF92CF92FA
:1008A000DF92EF92FF920F931F93CF93DF93D82E97
:1008B000C62EC42FD0E0E12CF12C00E010E041E086
:1008C000AC2CA00E6A2DBC2EBD0C8B2D0E9472028A
:1008D00041E08C2E8C0C682D9D2C900E892D0E9451
:1008E000720241E0682D7D2C701A872D0E947202E1
:1008F00041E06A2D8D2C8C1A882D0E94720241E0F5
:10090000AC2CA01A6A2D882D0E94720241E08C2C1A
:100910008C1A682D872D0E94720241E0682D892D66
:100920000E94720241E06A2D8B2D0E9472021E14F9
:100930001F045CF00F5F1F4FC801880F991F0196BD
:10094000E80EF91E1E141F043CF42197CE01880FF7
:10095000991F0196E81AF90AC017D1070CF0AFCF1A
:10096000DF91CF911F910F91FF90EF90DF90CF908B
:10097000BF90AF909F908F907F900895CF930E94EB
:1009800013020E94560284B18F6184B98AB1806CCF
:100990008AB98AB11AB88AB18AB95A9A809168001C
:1009A00084608093680082E080936900C1E0CDBBE1
:1009B00078940E9454010E94DD01082E000C990BCE
:1009C0009093410380934003892B11F0C09343011E
:1009D0000E94560280914301813009F050C08091FD
:1009E0004201813021F480934101109242018091B3
:1009F0004101813071F4809106018E3038F08150D0
:100A0000809306018091040181500DC01092410134
:100A10000CC0809104018B3240F4909106019F5FDD
:100A2000909306018F5F809304018FE99FE0019707
:100A3000F1F700C000000E94C3010E947101909173
:100A4000030180910501891728F29091020180919C
:100A50000401981708F0BECF909100018091060123
:100A6000891708F0B7CF0E94560261E082E391E057
:100A70000E943B030E94500310924301ABCF80E0E1
:100A800090E0CF910895991B79E004C0991F9617C3
:100A900008F0961B881F7A95C9F7809508955058DD
:100AA000BB27AA270E9467050C94B1060E94A306E3
:100AB00038F00E94AA0620F039F49F3F19F426F47A
:100AC0000C94A0060EF4E095E7FB0C949A06E92F2F
:100AD0000E94C20658F3BA17620773078407950786
:100AE00020F079F4A6F50C94E4060EF4E0950B2EB4
:100AF000BA2FA02D0B01B90190010C01CA01A00170
:100B00001124FF27591B99F0593F50F4503E68F1CA
:100B10001A16F040A22F232F342F4427585FF3CF0B
:100B2000469537952795A795F0405395C9F77EF4DC
:100B30001F16BA0B620B730B840BBAF09150A1F025
:100B4000FF0FBB1F661F771F881FC2F70EC0BA0FAB
:100B5000621F731F841F48F4879577956795B79533
:100B6000F7959E3F08F0B0CF9395880F08F099272E
:100B7000EE0F9795879508950E94D0050C94B106C5
:100B80000E94AA0658F00E94A30640F029F45F3F95
:100B900029F00C949A0651110C94E5060C94A006C9
:100BA0000E94C20668F39923B1F3552391F3951B74
:100BB000550BBB27AA2762177307840738F09F5F7E
:100BC0005F4F220F331F441FAA1FA9F335D00E2EEB
:100BD0003AF0E0E832D091505040E695001CCAF758
:100BE0002BD0FE2F29D0660F771F881FBB1F26171B
:100BF00037074807AB07B0E809F0BB0B802DBF01F2
:100C0000FF2793585F4F3AF09E3F510578F00C94C0
:100C10009A060C94E5065F3FE4F3983ED4F386957C
:100C200077956795B795F7959F5FC9F7880F911DE1
:100C30009695879597F90895E1E0660F771F881FCD
:100C4000BB1F621773078407BA0720F0621B730B80
:100C5000840BBA0BEE1F88F7E09508950E94CA0630
:100C600088F09F5798F0B92F9927B751B0F0E1F06D
:100C7000660F771F881F991F1AF0BA95C9F714C01D
:100C8000B13091F00E94E406B1E008950C94E406BE
:100C9000672F782F8827B85F39F0B93FCCF3869556
:100CA00077956795B395D9F73EF4909580957095B3
:100CB00061957F4F8F4F9F4F0895E89409C097FB30
:100CC0003EF490958095709561957F4F8F4F9F4F23
:100CD0009923A9F0F92F96E9BB279395F695879567
:100CE00077956795B795F111F8CFFAF4BB0F11F42A
:100CF00060FF1BC06F5F7F4F8F4F9F4F16C08823D1
:100D000011F096E911C0772321F09EE8872F762F06
:100D100005C0662371F096E8862F70E060E02AF047
:100D20009A95660F771F881FDAF7880F9695879533
:100D300097F9089597F99F6780E870E060E008955B
:100D40009FEF80EC089500240A94161617061806E3
:100D50000906089500240A941216130614060506BF
:100D60000895092E0394000C11F4882352F0BB0F50
:100D700040F4BF2B11F460FF04C06F5F7F4F8F4FB3
:100D80009F4F089557FD9058440F551F59F05F3FEE
:100D900071F04795880F97FB991F61F09F3F79F09D
:100DA00087950895121613061406551FF2CF46951F
:100DB000F1DF08C0161617061806991FF1CF8695A1
:100DC0007105610508940895E894BB276627772785
:100DD000CB0197F908950E94F00608F48FEF08956B
:100DE000990F0008550FAA0BE0E8FEEF161617063C
:100DF000E807F907C0F012161306E407F50798F0A4
:100E0000621B730B840B950B39F40A2661F0232BBC
:100E1000242B252B21F408950A2609F4A140A69538
:100E20008FEF811D811D0895FB01DC0102C005903B
:100E30000D9241505040D8F70895AEE0B0E0E3E2A3
:100E4000F7E00C94DE090D891E8986E08C831A83F5
:100E500009838FEF9FE79E838D83AE01475E5F4FCF
:100E60006F89788DCE0101960E943F07EF81F8854A
:100E7000E00FF11F10822E96E4E00C94FA09ABE02B
:100E8000B0E0E5E4F7E00C94D0096C017B018A0145
:100E9000FC0117821682838181FFCCC1CE010196AD
:100EA0003C01F6019381F70193FD859193FF8191B8
:100EB0007F01882309F4BAC1853239F493FD859105
:100EC00093FF81917F01853229F4B60190E00E9461
:100ED0003609E7CF912C212C312CFFE1F315D8F006
:100EE0008B3279F038F4803279F08332A1F4232DFB
:100EF00020611DC08D3261F0803369F4232D2160A3
:100F000016C0832D8260382EE32DE4603E2E2AC069
:100F1000F32DF8601DC037FC2DC020ED280F2A30BE
:100F200040F08E32B9F436FC81C1232D2064322E7C
:100F300019C036FE06C08AE0989E200D1124922E1C
:100F400011C0EAE02E9E200D1124222EF32DF06216
:100F50003F2E08C08C3621F4832D8068382E02C0C5
:100F6000883641F4F70193FD859193FF81917F01CC
:100F70008111B3CF982F9F7D9554933028F40C5F47
:100F80001F4F9FE399830DC0833631F0833771F093
:100F9000833509F059C021C0F801808189830E5F33
:100FA0001F4F88248394912C530113C02801F2E031
:100FB0004F0E511CF801A080B18036FE03C0692D90
:100FC00070E002C06FEF7FEFC5010E942B094C015A
:100FD0008201F32DFF773F2E16C0280122E0420E3A
:100FE000511CF801A080B18036FE03C0692D70E06D
:100FF00002C06FEF7FEFC5010E9420094C01F32D65
:10100000F0683F2E820133FC1BC0822D90E08816D1
:101010009906B0F4B60180E290E00E9436092A9465
:10102000F4CFF50137FC859137FE81915F01B60160
:1010300090E00E94360921102A9421E0821A91083A
:101040008114910471F7E8C0843611F0893641F5B6
:10105000F80137FE07C060817181828193810C5F46
:101060001F4F08C060817181072E000C880B990BFF
:101070000E5F1F4FF32DFF763F2E97FF09C090950F
:101080008095709561957F4F8F4F9F4FF0683F2EF1
:101090002AE030E0A3010E947209882E861845C01C
:1010A000853731F4232D2F7EB22E2AE030E025C083
:1010B000932D997FB92E8F36C1F018F4883579F0C9
:1010C000B5C0803719F0883721F0B0C0E92FE06152
:1010D000BE2EB4FE0DC0FB2DF460BF2E09C034FE41
:1010E0000AC0292F2660B22E06C028E030E005C0D5
:1010F00020E130E002C020E132E0F801B7FE07C095
:1011000060817181828193810C5F1F4F06C0608175
:10111000718180E090E00E5F1F4FA3010E94720971
:10112000882E8618FB2DFF773F2E36FE0DC0232D0F
:101130002E7FA22E891458F434FE0BC032FC09C055
:10114000832D8E7EA82E05C0B82CA32C03C0B82CEE
:1011500001C0B92CA4FE0FC0FE01E80DF11D808175
:10116000803321F49A2D997EA92E09C0A2FE06C0D3
:10117000B394B39404C08A2D867809F0B394A3FC89
:1011800011C0A0FE06C0B21488F4280C922C9B1843
:101190000EC0B21460F4B60180E290E00E943609FD
:1011A000B394F7CFB21418F42B1802C0982C212C4A
:1011B000A4FE10C0B60180E390E00E943609A2FEB2
:1011C00017C0A1FC03C088E790E002C088E590E06A
:1011D000B6010CC08A2D867859F0A1FE02C08BE2C0
:1011E00001C080E2A7FC8DE2B60190E00E943609C2
:1011F000891438F4B60180E390E00E9436099A948D
:10120000F7CF8A94F301E80DF11D8081B60190E0DB
:101210000E9436098110F5CF222009F442CEB60192
:1012200080E290E00E9436092A94F6CFF60186818A
:10123000978102C08FEF9FEF2B96E2E10C94EC09AF
:10124000FC010590615070400110D8F78095909591
:101250008E0F9F1F0895FC01615070400190011096
:10126000D8F7809590958E0F9F1F08950F931F9329
:10127000CF93DF93FB01238121FD03C08FEF9FEF0D
:101280002CC022FF16C04681578124813581421728
:10129000530744F4A081B1819D012F5F3F4F3183FB
:1012A00020838C93268137812F5F3F4F378326839E
:1012B00014C08B01EC01FB010084F185E02D099540
:1012C000892BE1F6D80116968D919C91179701967E
:1012D00017969C938E931697CE01DF91CF911F9115
:1012E0000F910895FA01AA27283051F1203181F198
:1012F000E8946F936E7F6E5F7F4F8F4F9F4FAF4F1E
:10130000B1E03ED0B4E03CD0670F781F891F9A1F30
:10131000A11D680F791F8A1F911DA11D6A0F711DE4
:10132000811D911DA11D20D009F468943F912AE0F0
:10133000269F11243019305D3193DEF6CF010895D8
:10134000462F4770405D4193B3E00FD0C9F7F6CF09
:10135000462F4F70405D4A3318F0495D31FD4052D1
:10136000419302D0A9F7EACFB4E0A6959795879567
:1013700077956795BA95C9F7009761057105089546
:101380009B01AC010A2E06945795479537952795F2
:10139000BA95C9F7620F731F841F951FA01D08958A
:1013A0002F923F924F925F926F927F928F929F9275
:1013B000AF92BF92CF92DF92EF92FF920F931F9363
:1013C000CF93DF93CDB7DEB7CA1BDB0B0FB6F89414
:1013D000DEBF0FBECDBF09942A88398848885F8454
:1013E0006E847D848C849B84AA84B984C884DF80C5
:1013F000EE80FD800C811B81AA81B981CE0FD11DA9
:101400000FB6F894DEBF0FBECDBFED010895F8947E
:02141000FFCF0C
:101412002B50214C2B1121072B532B47616D65005B
:10142200283129202D20537461727400283229201A
:101432002D204578697400706F696E74733A2025A7
:101442006400566F63652070657264657501000003
:040000050080014036
:00000001FF
